{
  "contractName": "Landmark",
  "abi": [
    {
      "constant": true,
      "inputs": [],
      "name": "getCuratorMessage",
      "outputs": [
        {
          "name": "",
          "type": "string"
        }
      ],
      "payable": false,
      "stateMutability": "view",
      "type": "function"
    },
    {
      "constant": true,
      "inputs": [],
      "name": "getCuratorAddress",
      "outputs": [
        {
          "name": "",
          "type": "address"
        }
      ],
      "payable": false,
      "stateMutability": "view",
      "type": "function"
    },
    {
      "constant": true,
      "inputs": [],
      "name": "getMessageCount",
      "outputs": [
        {
          "name": "",
          "type": "uint256"
        }
      ],
      "payable": false,
      "stateMutability": "view",
      "type": "function"
    },
    {
      "constant": true,
      "inputs": [],
      "name": "getVersionNumber",
      "outputs": [
        {
          "name": "",
          "type": "uint256"
        }
      ],
      "payable": false,
      "stateMutability": "view",
      "type": "function"
    },
    {
      "constant": false,
      "inputs": [
        {
          "name": "text",
          "type": "string"
        }
      ],
      "name": "postCuratorMessage",
      "outputs": [],
      "payable": false,
      "stateMutability": "nonpayable",
      "type": "function"
    },
    {
      "constant": true,
      "inputs": [
        {
          "name": "i",
          "type": "uint256"
        }
      ],
      "name": "getMessageTimestamp",
      "outputs": [
        {
          "name": "",
          "type": "uint256"
        }
      ],
      "payable": false,
      "stateMutability": "view",
      "type": "function"
    },
    {
      "constant": false,
      "inputs": [
        {
          "name": "text",
          "type": "string"
        }
      ],
      "name": "postMessage",
      "outputs": [],
      "payable": false,
      "stateMutability": "nonpayable",
      "type": "function"
    },
    {
      "constant": false,
      "inputs": [
        {
          "name": "target",
          "type": "address"
        }
      ],
      "name": "setForwardingAddress",
      "outputs": [],
      "payable": false,
      "stateMutability": "nonpayable",
      "type": "function"
    },
    {
      "constant": false,
      "inputs": [],
      "name": "closeLandmarkSite",
      "outputs": [],
      "payable": false,
      "stateMutability": "nonpayable",
      "type": "function"
    },
    {
      "constant": true,
      "inputs": [
        {
          "name": "text",
          "type": "string"
        }
      ],
      "name": "getPostLength",
      "outputs": [
        {
          "name": "length",
          "type": "uint256"
        }
      ],
      "payable": false,
      "stateMutability": "pure",
      "type": "function"
    },
    {
      "constant": true,
      "inputs": [],
      "name": "getIsSiteOpen",
      "outputs": [
        {
          "name": "",
          "type": "bool"
        }
      ],
      "payable": false,
      "stateMutability": "view",
      "type": "function"
    },
    {
      "constant": true,
      "inputs": [],
      "name": "getLimitPostLength",
      "outputs": [
        {
          "name": "",
          "type": "uint16"
        }
      ],
      "payable": false,
      "stateMutability": "view",
      "type": "function"
    },
    {
      "constant": true,
      "inputs": [
        {
          "name": "i",
          "type": "uint256"
        }
      ],
      "name": "getMessageAddress",
      "outputs": [
        {
          "name": "",
          "type": "address"
        }
      ],
      "payable": false,
      "stateMutability": "view",
      "type": "function"
    },
    {
      "constant": true,
      "inputs": [
        {
          "name": "i",
          "type": "uint256"
        }
      ],
      "name": "getMessageContents",
      "outputs": [
        {
          "name": "",
          "type": "string"
        }
      ],
      "payable": false,
      "stateMutability": "view",
      "type": "function"
    },
    {
      "constant": true,
      "inputs": [],
      "name": "getForwardingAddress",
      "outputs": [
        {
          "name": "",
          "type": "address"
        }
      ],
      "payable": false,
      "stateMutability": "view",
      "type": "function"
    },
    {
      "inputs": [],
      "payable": false,
      "stateMutability": "nonpayable",
      "type": "constructor"
    }
  ],
  "bytecode": "0x606060405260016000819055805476010000000000000000000000000000000000000000000060a060020a61ffff02199091167501f000000000000000000000000000000000000000001760b060020a60ff021916179055341561006257600080fd5b60018054600160a060020a03191633600160a060020a0316179055610b758061008c6000396000f300606060405236156100d85763ffffffff7c01000000000000000000000000000000000000000000000000000000006000350416631e34c7e281146100dd57806328e0e18e14610167578063319339161461019657806354255be0146101bb5780635b77d9dd146101ce5780635cfb4aa4146102215780636630f88f146102375780636665d99a1461028857806377228662146102a757806379152f7a146102ba578063a3c742c51461030b578063a528782314610332578063bf39678d1461035c578063bfc650e914610372578063cc0abdfa14610388575b600080fd5b34156100e857600080fd5b6100f061039b565b60405160208082528190810183818151815260200191508051906020019080838360005b8381101561012c578082015183820152602001610114565b50505050905090810190601f1680156101595780820380516001836020036101000a031916815260200191505b509250505060405180910390f35b341561017257600080fd5b61017a610444565b604051600160a060020a03909116815260200160405180910390f35b34156101a157600080fd5b6101a9610453565b60405190815260200160405180910390f35b34156101c657600080fd5b6101a9610459565b34156101d957600080fd5b61021f60046024813581810190830135806020601f8201819004810201604051908101604052818152929190602084018383808284375094965061045f95505050505050565b005b341561022c57600080fd5b6101a96004356104c7565b341561024257600080fd5b61021f60046024813581810190830135806020601f8201819004810201604051908101604052818152929190602084018383808284375094965061051395505050505050565b341561029357600080fd5b61021f600160a060020a0360043516610616565b34156102b257600080fd5b61021f61068a565b34156102c557600080fd5b6101a960046024813581810190830135806020601f820181900481020160405190810160405281815292919060208401838380828437509496506106c795505050505050565b341561031657600080fd5b61031e61084f565b604051901515815260200160405180910390f35b341561033d57600080fd5b610345610872565b60405161ffff909116815260200160405180910390f35b341561036757600080fd5b61017a600435610894565b341561037d57600080fd5b6100f06004356108ea565b341561039357600080fd5b61017a6109d4565b6103a36109e3565b60038054600181600116156101000203166002900480601f0160208091040260200160405190810160405280929190818152602001828054600181600116156101000203166002900480156104395780601f1061040e57610100808354040283529160200191610439565b820191906000526020600020905b81548152906001019060200180831161041c57829003601f168201915b505050505090505b90565b600154600160a060020a031690565b60045490565b60005490565b600154819074010000000000000000000000000000000000000000900461ffff16610489826106c7565b111561049457600080fd5b60015433600160a060020a039081169116146104af57600080fd5b60038280516104c29291602001906109f5565b505050565b6000816104d2610453565b81106104dd57600080fd5b60008110156104eb57600080fd5b60048054849081106104f957fe5b906000526020600020906003020160020154915050919050565b600154819074010000000000000000000000000000000000000000900461ffff1661053d826106c7565b111561054857600080fd5b600154760100000000000000000000000000000000000000000000900460ff16151561057357600080fd5b60048054600181016105858382610a73565b9160005260206000209060030201600060606040519081016040908152868252600160a060020a033316602083015242908201529190508151819080516105d09291602001906109f5565b50602082015160018201805473ffffffffffffffffffffffffffffffffffffffff1916600160a060020a0392909216919091179055604082015181600201555050505050565b60015433600160a060020a0390811691161461063157600080fd5b600154760100000000000000000000000000000000000000000000900460ff161561065b57600080fd5b6002805473ffffffffffffffffffffffffffffffffffffffff1916600160a060020a0392909216919091179055565b60015433600160a060020a039081169116146106a557600080fd5b6001805476ff0000000000000000000000000000000000000000000019169055565b6000806106d26109e3565b5060009050825b80518210156108485760078183815181106106f057fe5b016020015160029190910a7fff0000000000000000000000000000000000000000000000000000000000000060f860020a9283900490920282160416151561073d5760018201915061083d565b600581838151811061074b57fe5b016020015160f860020a900460f860020a02600160f860020a0319169060020a9004600160f860020a031916600660f860020a0214156107905760028201915061083d565b600481838151811061079e57fe5b016020015160f860020a900460f860020a02600160f860020a0319169060020a9004600160f860020a031916600e60f860020a0214156107e35760038201915061083d565b60038183815181106107f157fe5b016020015160f860020a900460f860020a02600160f860020a0319169060020a9004600160f860020a031916601e60f860020a0214156108365760048201915061083d565b6001820191505b6001909201916106d9565b5050919050565b600154760100000000000000000000000000000000000000000000900460ff1690565b60015474010000000000000000000000000000000000000000900461ffff1690565b60008161089f610453565b81106108aa57600080fd5b60008110156108b857600080fd5b60048054849081106108c657fe5b6000918252602090912060039091020160010154600160a060020a03169392505050565b6108f26109e3565b816108fb610453565b811061090657600080fd5b600081101561091457600080fd5b600480548490811061092257fe5b90600052602060002090600302016000018054600181600116156101000203166002900480601f0160208091040260200160405190810160405280929190818152602001828054600181600116156101000203166002900480156109c75780601f1061099c576101008083540402835291602001916109c7565b820191906000526020600020905b8154815290600101906020018083116109aa57829003601f168201915b5050505050915050919050565b600254600160a060020a031690565b60206040519081016040526000815290565b828054600181600116156101000203166002900490600052602060002090601f016020900481019282601f10610a3657805160ff1916838001178555610a63565b82800160010185558215610a63579182015b82811115610a63578251825591602001919060010190610a48565b50610a6f929150610a9f565b5090565b8154818355818115116104c2576003028160030283600052602060002091820191016104c29190610ab9565b61044191905b80821115610a6f5760008155600101610aa5565b61044191905b80821115610a6f576000610ad38282610b02565b5060018101805473ffffffffffffffffffffffffffffffffffffffff1916905560006002820155600301610abf565b50805460018160011615610100020316600290046000825580601f10610b285750610b46565b601f016020900490600052602060002090810190610b469190610a9f565b505600a165627a7a7230582077008e3546fd8e121db5580c6432f25bb2a988703f6e36ef70e766c5be5650a40029",
  "source": "pragma solidity ^0.4.17;\n\ncontract Landmark {\n\n  // Hard-coded version number (increment on new public deploy)\n  uint versionNumber = 1;\n\n  // Curator address fixed on contract creation\n  address curator;\n\n  // Post length hard-coded and fixed on contract creation\n  uint16 limitPostLength = 496;\n\n  // Once a site is closed, it can never be reopened\n  bool isSiteOpen = true;\n  \n  // Forwarding address can be set to new contract only AFTER closed\n  address forwardingAddress;\n\n  struct _postContent {\n    string contents;\n    address senderAddress;\n    uint timestamp;\n  }\n\n  string curatorMessage;\n  \n  _postContent[] Messages;  \n  \n  function Landmark() public {\n    curator = msg.sender;\n  }\n\n  \n  // ****************** Post functions ******************\n  \n  function postMessage(string text)\n    checkLength(text)\n    checkIsOpen()\n    public {\n    Messages.push(_postContent(text, msg.sender, block.timestamp));\n  }\n\n  function postCuratorMessage(string text)\n    checkLength(text)\n    checkCurator()\n    public {\n    curatorMessage = text;\n  }\n\n  // ****************** Validation funcs *****************\n\n  modifier checkValidIndex(uint i) {\n    require(i < getMessageCount());\n    require(i >= 0); _;\n  }\n\n  modifier checkLength(string text) {\n    require(getPostLength(text) <= limitPostLength); _;\n  }\n\n  modifier checkCurator() {\n    require(curator==msg.sender); _;\n  }\n\n  modifier checkIsOpen() {\n    require(isSiteOpen); _;\n  }\n\n  // ****************** Public Getters ******************\n  \n  function getMessageCount()\n    public view returns (uint) {\n    return Messages.length;\n  }\n\n  function getMessageContents(uint i) checkValidIndex(i)\n    public view returns (string) {\n    return Messages[i].contents;\n  }\n\n  function getMessageAddress(uint i) checkValidIndex(i)\n    public view returns (address) {\n    return Messages[i].senderAddress;\n  }\n\n  function getMessageTimestamp(uint i) checkValidIndex(i)\n    public view returns (uint) {\n    return Messages[i].timestamp;\n  }\n\n  function getCuratorAddress() public view returns (address) {\n    return curator;\n  }\n\n  function getForwardingAddress() public view returns (address) {\n    return forwardingAddress;\n  }\n\n  function getLimitPostLength() public view returns (uint16) {\n    return limitPostLength;\n  }\n\n  function getIsSiteOpen() public view returns (bool) {\n    return isSiteOpen;\n  }\n\n  function getCuratorMessage() public view returns (string) {\n    return curatorMessage;\n  }\n\n  function getVersionNumber() public view returns (uint) {\n    return versionNumber;\n  }\n\n\n  // ****************** Utility funcs  ******************\n\n  function closeLandmarkSite() public checkCurator() {\n    isSiteOpen=false;\n  }\n  \n  function setForwardingAddress(address target) public checkCurator() {\n    require(isSiteOpen==false);\n    forwardingAddress = target;\n  }\n  \n\n  // ****************** Helper funcs   ******************\n  \n  function getPostLength(string text)\n    public pure returns (uint length) {\n    // This is complicated since unicode takes up a different amount of space\n    uint i=0;\n    bytes memory string_rep = bytes(text);\n\t\n    while (i<string_rep.length) {\n      if (string_rep[i]>>7==0)\n\ti+=1;\n      else if (string_rep[i]>>5==0x6)\n\ti+=2;\n      else if (string_rep[i]>>4==0xE)\n\ti+=3;\n      else if (string_rep[i]>>3==0x1E)\n\ti+=4;\n      else\n\ti+=1; //For safety\n      length++;\n    }\n  }\n  \n}\n",
  "sourcePath": "/home/travis/git-repo/Landmark/contracts/Landmark.sol",
  "schemaVersion": "1.0.0",
  "updatedAt": "2017-10-15T05:26:59.964Z"
}