{
  "contractName": "Landmark",
  "abi": [
    {
      "constant": true,
      "inputs": [],
      "name": "getPermissionNeededToProfile",
      "outputs": [
        {
          "name": "",
          "type": "bool"
        }
      ],
      "payable": false,
      "stateMutability": "view",
      "type": "function"
    },
    {
      "constant": false,
      "inputs": [
        {
          "name": "value",
          "type": "bool"
        }
      ],
      "name": "setPermissionMessage",
      "outputs": [],
      "payable": false,
      "stateMutability": "nonpayable",
      "type": "function"
    },
    {
      "constant": true,
      "inputs": [],
      "name": "getCostPrivilege",
      "outputs": [
        {
          "name": "",
          "type": "uint256"
        }
      ],
      "payable": false,
      "stateMutability": "view",
      "type": "function"
    },
    {
      "constant": true,
      "inputs": [],
      "name": "getPermissionNeededToMessage",
      "outputs": [
        {
          "name": "",
          "type": "bool"
        }
      ],
      "payable": false,
      "stateMutability": "view",
      "type": "function"
    },
    {
      "constant": true,
      "inputs": [],
      "name": "getCuratorAddress",
      "outputs": [
        {
          "name": "",
          "type": "address"
        }
      ],
      "payable": false,
      "stateMutability": "view",
      "type": "function"
    },
    {
      "constant": true,
      "inputs": [],
      "name": "getMessageCount",
      "outputs": [
        {
          "name": "",
          "type": "uint256"
        }
      ],
      "payable": false,
      "stateMutability": "view",
      "type": "function"
    },
    {
      "constant": false,
      "inputs": [
        {
          "name": "text",
          "type": "string"
        }
      ],
      "name": "postProfile",
      "outputs": [],
      "payable": false,
      "stateMutability": "nonpayable",
      "type": "function"
    },
    {
      "constant": false,
      "inputs": [],
      "name": "withdrawValue",
      "outputs": [
        {
          "name": "",
          "type": "bool"
        }
      ],
      "payable": false,
      "stateMutability": "nonpayable",
      "type": "function"
    },
    {
      "constant": false,
      "inputs": [
        {
          "name": "target",
          "type": "address"
        }
      ],
      "name": "grantPrivilege",
      "outputs": [],
      "payable": false,
      "stateMutability": "nonpayable",
      "type": "function"
    },
    {
      "constant": true,
      "inputs": [
        {
          "name": "",
          "type": "address"
        }
      ],
      "name": "Profiles",
      "outputs": [
        {
          "name": "contents",
          "type": "string"
        },
        {
          "name": "timestamp",
          "type": "uint256"
        },
        {
          "name": "isPrivileged",
          "type": "bool"
        }
      ],
      "payable": false,
      "stateMutability": "view",
      "type": "function"
    },
    {
      "constant": true,
      "inputs": [],
      "name": "getVersionNumber",
      "outputs": [
        {
          "name": "",
          "type": "uint256"
        }
      ],
      "payable": false,
      "stateMutability": "view",
      "type": "function"
    },
    {
      "constant": true,
      "inputs": [
        {
          "name": "i",
          "type": "uint256"
        }
      ],
      "name": "getMessageTimestamp",
      "outputs": [
        {
          "name": "",
          "type": "uint256"
        }
      ],
      "payable": false,
      "stateMutability": "view",
      "type": "function"
    },
    {
      "constant": false,
      "inputs": [
        {
          "name": "text",
          "type": "string"
        }
      ],
      "name": "postMessage",
      "outputs": [],
      "payable": false,
      "stateMutability": "nonpayable",
      "type": "function"
    },
    {
      "constant": false,
      "inputs": [
        {
          "name": "target",
          "type": "address"
        }
      ],
      "name": "setForwardingAddress",
      "outputs": [],
      "payable": false,
      "stateMutability": "nonpayable",
      "type": "function"
    },
    {
      "constant": false,
      "inputs": [],
      "name": "closeLandmarkSite",
      "outputs": [],
      "payable": false,
      "stateMutability": "nonpayable",
      "type": "function"
    },
    {
      "constant": true,
      "inputs": [
        {
          "name": "text",
          "type": "string"
        }
      ],
      "name": "getPostLength",
      "outputs": [
        {
          "name": "length",
          "type": "uint256"
        }
      ],
      "payable": false,
      "stateMutability": "pure",
      "type": "function"
    },
    {
      "constant": true,
      "inputs": [],
      "name": "getIsSiteOpen",
      "outputs": [
        {
          "name": "",
          "type": "bool"
        }
      ],
      "payable": false,
      "stateMutability": "view",
      "type": "function"
    },
    {
      "constant": true,
      "inputs": [],
      "name": "getLimitPostLength",
      "outputs": [
        {
          "name": "",
          "type": "uint16"
        }
      ],
      "payable": false,
      "stateMutability": "view",
      "type": "function"
    },
    {
      "constant": false,
      "inputs": [
        {
          "name": "newcost",
          "type": "uint256"
        }
      ],
      "name": "setCostPrivilege",
      "outputs": [],
      "payable": false,
      "stateMutability": "nonpayable",
      "type": "function"
    },
    {
      "constant": true,
      "inputs": [
        {
          "name": "target",
          "type": "address"
        }
      ],
      "name": "getIsPrivileged",
      "outputs": [
        {
          "name": "",
          "type": "bool"
        }
      ],
      "payable": false,
      "stateMutability": "view",
      "type": "function"
    },
    {
      "constant": true,
      "inputs": [
        {
          "name": "target",
          "type": "address"
        }
      ],
      "name": "checkValidProfile",
      "outputs": [
        {
          "name": "",
          "type": "bool"
        }
      ],
      "payable": false,
      "stateMutability": "view",
      "type": "function"
    },
    {
      "constant": true,
      "inputs": [
        {
          "name": "i",
          "type": "uint256"
        }
      ],
      "name": "getMessageAddress",
      "outputs": [
        {
          "name": "",
          "type": "address"
        }
      ],
      "payable": false,
      "stateMutability": "view",
      "type": "function"
    },
    {
      "constant": true,
      "inputs": [
        {
          "name": "i",
          "type": "uint256"
        }
      ],
      "name": "getMessageContents",
      "outputs": [
        {
          "name": "",
          "type": "string"
        }
      ],
      "payable": false,
      "stateMutability": "view",
      "type": "function"
    },
    {
      "constant": true,
      "inputs": [],
      "name": "getForwardingAddress",
      "outputs": [
        {
          "name": "",
          "type": "address"
        }
      ],
      "payable": false,
      "stateMutability": "view",
      "type": "function"
    },
    {
      "constant": false,
      "inputs": [],
      "name": "purchasePrivilege",
      "outputs": [],
      "payable": true,
      "stateMutability": "payable",
      "type": "function"
    },
    {
      "constant": true,
      "inputs": [
        {
          "name": "target",
          "type": "address"
        }
      ],
      "name": "getProfileContent",
      "outputs": [
        {
          "name": "",
          "type": "string"
        }
      ],
      "payable": false,
      "stateMutability": "view",
      "type": "function"
    },
    {
      "constant": true,
      "inputs": [],
      "name": "getContractValue",
      "outputs": [
        {
          "name": "",
          "type": "uint256"
        }
      ],
      "payable": false,
      "stateMutability": "view",
      "type": "function"
    },
    {
      "constant": false,
      "inputs": [
        {
          "name": "value",
          "type": "bool"
        }
      ],
      "name": "setPermissionProfile",
      "outputs": [],
      "payable": false,
      "stateMutability": "nonpayable",
      "type": "function"
    },
    {
      "inputs": [],
      "payable": false,
      "stateMutability": "nonpayable",
      "type": "constructor"
    }
  ],
  "bytecode": "0x606060405260016000819055600390556002805476010000000000000000000000000000000000000000000060a060020a61ffff02199091167501f000000000000000000000000000000000000000001760b060020a60ff021916179055341561006857600080fd5b60028054600160a060020a03191633600160a060020a0390811691909117918290556100a191166401000000006100a681026108081704565b6100e8565b60025433600160a060020a039081169116146100c157600080fd5b600160a060020a03166000908152600660205260409020600201805460ff19166001179055565b61117d806100f76000396000f300606060405236156101675763ffffffff7c0100000000000000000000000000000000000000000000000000000000600035041663086bff7b811461016c5780630b49164f146101935780630d696e93146101ad5780632212c380146101d257806328e0e18e146101e557806331933916146102145780633af6e9ec146102275780633dc3e2a81461027857806342b735e61461028b57806345ffb23c146102aa57806354255be0146103625780635cfb4aa4146103755780636630f88f1461038b5780636665d99a146103dc57806377228662146103fb57806379152f7a1461040e578063a3c742c51461045f578063a528782314610472578063a94ff4af1461049c578063b6abfb2e146104b2578063be1459b1146104d1578063bf39678d146104f0578063bfc650e914610506578063cc0abdfa14610593578063d076c0af146105a6578063d1f61c74146105ae578063dc82697c146105cd578063df761a4c146105e0575b600080fd5b341561017757600080fd5b61017f6105f8565b604051901515815260200160405180910390f35b341561019e57600080fd5b6101ab600435151561061b565b005b34156101b857600080fd5b6101c0610665565b60405190815260200160405180910390f35b34156101dd57600080fd5b61017f61066b565b34156101f057600080fd5b6101f861067b565b604051600160a060020a03909116815260200160405180910390f35b341561021f57600080fd5b6101c061068a565b341561023257600080fd5b6101ab60046024813581810190830135806020601f8201819004810201604051908101604052818152929190602084018383808284375094965061069095505050505050565b341561028357600080fd5b61017f610798565b341561029657600080fd5b6101ab600160a060020a0360043516610808565b34156102b557600080fd5b6102c9600160a060020a036004351661084a565b604051602081018390528115156040820152606080825284546002600019610100600184161502019091160490820181905281906080820190869080156103515780601f1061032657610100808354040283529160200191610351565b820191906000526020600020905b81548152906001019060200180831161033457829003601f168201915b505094505050505060405180910390f35b341561036d57600080fd5b6101c0610868565b341561038057600080fd5b6101c060043561086e565b341561039657600080fd5b6101ab60046024813581810190830135806020601f820181900481020160405190810160405281815292919060208401838380828437509496506108ba95505050505050565b34156103e757600080fd5b6101ab600160a060020a03600435166109d8565b341561040657600080fd5b6101ab610a39565b341561041957600080fd5b6101c060046024813581810190830135806020601f82018190048102016040519081016040528181529291906020840183838082843750949650610a7695505050505050565b341561046a57600080fd5b61017f610bfe565b341561047d57600080fd5b610485610c0e565b60405161ffff909116815260200160405180910390f35b34156104a757600080fd5b6101ab600435610c1f565b34156104bd57600080fd5b61017f600160a060020a0360043516610c3f565b34156104dc57600080fd5b61017f600160a060020a0360043516610c60565b34156104fb57600080fd5b6101f8600435610c7f565b341561051157600080fd5b61051c600435610cd5565b60405160208082528190810183818151815260200191508051906020019080838360005b83811015610558578082015183820152602001610540565b50505050905090810190601f1680156105855780820380516001836020036101000a031916815260200191505b509250505060405180910390f35b341561059e57600080fd5b6101f8610dbf565b6101ab610dce565b34156105b957600080fd5b61051c600160a060020a0360043516610e97565b34156105d857600080fd5b6101c0610f7b565b34156105eb57600080fd5b6101ab6004351515610f89565b6003547501000000000000000000000000000000000000000000900460ff165b90565b60025433600160a060020a0390811691161461063657600080fd5b6003805491151560a060020a0274ff000000000000000000000000000000000000000019909216919091179055565b60045490565b60035460a060020a900460ff1690565b600254600160a060020a031690565b60055490565b600254819060a060020a900461ffff166106a982610a76565b11156106b457600080fd5b60025460b060020a900460ff1615156106cc57600080fd5b6003547501000000000000000000000000000000000000000000900460ff161561071d57600160a060020a03331660009081526006602052604090206002015460ff16151560011461071d57600080fd5b60606040519081016040528083815260200142815260200161073e33610c3f565b15159052600160a060020a033316600090815260066020526040902081518190805161076e929160200190610fe6565b50602082015181600101556040820151600291909101805460ff1916911515919091179055505050565b60025460009033600160a060020a039081169116146107b657600080fd5b600030600160a060020a031631111561080257600254600160a060020a039081169030163180156108fc0290604051600060405180830381858888f19350505050151561080257600080fd5b50600190565b60025433600160a060020a0390811691161461082357600080fd5b600160a060020a03166000908152600660205260409020600201805460ff19166001179055565b60066020526000908152604090206001810154600282015460ff1683565b60005490565b60008161087961068a565b811061088457600080fd5b600081101561089257600080fd5b60058054849081106108a057fe5b906000526020600020906003020160020154915050919050565b600254819060a060020a900461ffff166108d382610a76565b11156108de57600080fd5b60025460b060020a900460ff1615156108f657600080fd5b60035460a060020a900460ff161561093557600160a060020a03331660009081526006602052604090206002015460ff16151560011461093557600080fd5b60058054600181016109478382611064565b9160005260206000209060030201600060606040519081016040908152868252600160a060020a03331660208301524290820152919050815181908051610992929160200190610fe6565b50602082015160018201805473ffffffffffffffffffffffffffffffffffffffff1916600160a060020a0392909216919091179055604082015181600201555050505050565b60025433600160a060020a039081169116146109f357600080fd5b60025460b060020a900460ff1615610a0a57600080fd5b6003805473ffffffffffffffffffffffffffffffffffffffff1916600160a060020a0392909216919091179055565b60025433600160a060020a03908116911614610a5457600080fd5b6002805476ff0000000000000000000000000000000000000000000019169055565b600080610a81611095565b5060009050825b8051821015610bf7576007818381518110610a9f57fe5b016020015160029190910a7fff0000000000000000000000000000000000000000000000000000000000000060f860020a92839004909202821604161515610aec57600182019150610bec565b6005818381518110610afa57fe5b016020015160f860020a900460f860020a02600160f860020a0319169060020a9004600160f860020a031916600660f860020a021415610b3f57600282019150610bec565b6004818381518110610b4d57fe5b016020015160f860020a900460f860020a02600160f860020a0319169060020a9004600160f860020a031916600e60f860020a021415610b9257600382019150610bec565b6003818381518110610ba057fe5b016020015160f860020a900460f860020a02600160f860020a0319169060020a9004600160f860020a031916601e60f860020a021415610be557600482019150610bec565b6001820191505b600190920191610a88565b5050919050565b60025460b060020a900460ff1690565b60025460a060020a900461ffff1690565b60025433600160a060020a03908116911614610c3a57600080fd5b600455565b600160a060020a031660009081526006602052604090206002015460ff1690565b600160a060020a03166000908152600660205260408120600101541190565b600081610c8a61068a565b8110610c9557600080fd5b6000811015610ca357600080fd5b6005805484908110610cb157fe5b6000918252602090912060039091020160010154600160a060020a03169392505050565b610cdd611095565b81610ce661068a565b8110610cf157600080fd5b6000811015610cff57600080fd5b6005805484908110610d0d57fe5b90600052602060002090600302016000018054600181600116156101000203166002900480601f016020809104026020016040519081016040528092919081815260200182805460018160011615610100020316600290048015610db25780601f10610d8757610100808354040283529160200191610db2565b820191906000526020600020905b815481529060010190602001808311610d9557829003601f168201915b5050505050915050919050565b600354600160a060020a031690565b60025460b060020a900460ff161515610de657600080fd5b600454341015610df557600080fd5b60045460009011610e0557600080fd5b600160a060020a03331660009081526006602052604090206002015460ff1615610e2e57600080fd5b600160a060020a0333166000908152600660205260409020600201805460ff19166001179055600454341115610e955733600160a060020a03166108fc60045434039081150290604051600060405180830381858888f193505050501515610e9557600080fd5b565b610e9f611095565b610ea882610c60565b1515610eb357600080fd5b6006600083600160a060020a0316600160a060020a031681526020019081526020016000206000018054600181600116156101000203166002900480601f016020809104026020016040519081016040528092919081815260200182805460018160011615610100020316600290048015610f6f5780601f10610f4457610100808354040283529160200191610f6f565b820191906000526020600020905b815481529060010190602001808311610f5257829003601f168201915b50505050509050919050565b600160a060020a0330163190565b60025433600160a060020a03908116911614610fa457600080fd5b6003805491151575010000000000000000000000000000000000000000000275ff00000000000000000000000000000000000000000019909216919091179055565b828054600181600116156101000203166002900490600052602060002090601f016020900481019282601f1061102757805160ff1916838001178555611054565b82800160010185558215611054579182015b82811115611054578251825591602001919060010190611039565b506110609291506110a7565b5090565b8154818355818115116110905760030281600302836000526020600020918201910161109091906110c1565b505050565b60206040519081016040526000815290565b61061891905b8082111561106057600081556001016110ad565b61061891905b808211156110605760006110db828261110a565b5060018101805473ffffffffffffffffffffffffffffffffffffffff19169055600060028201556003016110c7565b50805460018160011615610100020316600290046000825580601f10611130575061114e565b601f01602090049060005260206000209081019061114e91906110a7565b505600a165627a7a72305820c1a6fdd30055f955efb22c05ed71e267137b0987cac56405e8819d93c79c55f50029",
  "source": "pragma solidity ^0.4.17;\n\ncontract Landmark {\n\n  // Hard-coded version number (increment on new public deploy)\n  uint versionNumber = 1;\n\n  uint tmp = 3;\n\n  // Curator address fixed on contract creation\n  address curator;\n\n  // Post length hard-coded and fixed on contract creation\n  uint16 limitPostLength = 496;\n\n  // Once a site is closed, it can never be reopened\n  bool isSiteOpen = true;\n  \n  // Forwarding address can be set to new contract only AFTER closed\n  address forwardingAddress;\n\n  // Posting/Profiles are free by default\n  bool permissionNeededToMessage;\n  bool permissionNeededToProfile;\n  uint costPrivilege;\n\n  struct _postContent {\n    string contents;\n    address senderAddress;\n    uint timestamp;\n  }\n\n  struct _profileContent {\n    string contents;\n    uint timestamp;\n    bool isPrivileged;\n  }\n\n  _postContent[] Messages;  \n  mapping (address => _profileContent) public Profiles;\n\n  function Landmark() public {\n    curator = msg.sender;\n    grantPrivilege(curator);\n  }\n\n  \n  // ****************** Post functions ******************\n  \n  function postMessage(string text)\n    checkLength(text)\n    checkIsOpen()\n    checkPrivilegePostMessage()\n    public {\n    Messages.push(_postContent(text, msg.sender, block.timestamp));\n  }\n\n  function postProfile(string text)\n    checkLength(text)\n    checkIsOpen()\n    checkPrivilegePostProfile()\n    public {\n\n    Profiles[msg.sender] = _profileContent(text,\n\t\t\t\t\t   block.timestamp,\n\t\t\t\t\t   getIsPrivileged(msg.sender));\n  }\n\n  function grantPrivilege(address target) checkCurator() public {\n    Profiles[target].isPrivileged = true;\n  }\n\n  function setPermissionProfile(bool value) checkCurator() public {\n    permissionNeededToProfile = value;\n  }\n\n  function setPermissionMessage(bool value) checkCurator() public {\n    permissionNeededToMessage = value;\n  }\n  \n\n  // For a free and open network, do not include this function\n  // function revokePrivilege(address target) checkCurator() public {\n  //  Profiles[target].isPrivileged = false;\n  // }\n\n  // ****************** Validation funcs *****************\n\n  modifier checkPrivilegePostProfile() {\n    if(permissionNeededToProfile) \n      require(Profiles[msg.sender].isPrivileged == true);\n    _;\n  }\n\n  modifier checkPrivilegePostMessage() {\n    if(permissionNeededToMessage) \n      require(Profiles[msg.sender].isPrivileged == true);\n    _;\n  }\n  \n  modifier checkValidIndex(uint i) {\n    require(i < getMessageCount());\n    require(i >= 0); _;\n  }\n\n  modifier checkLength(string text) {\n    require(getPostLength(text) <= limitPostLength); _;\n  }\n\n  modifier checkCurator() {\n    require(curator==msg.sender); _;\n  }\n\n  modifier checkIsOpen() {\n    require(isSiteOpen); _;\n  }\n\n  // ****************** Public Getters ******************\n  \n  function getMessageCount() public constant returns (uint) {\n    return Messages.length;\n  }\n\n  function getMessageContents(uint i) checkValidIndex(i)\n    public constant returns (string) {\n    return Messages[i].contents;\n  }\n\n  function getMessageAddress(uint i) checkValidIndex(i)\n    public constant returns (address) {\n    return Messages[i].senderAddress;\n  }\n\n  function getMessageTimestamp(uint i) checkValidIndex(i)\n    public constant returns (uint) {\n    return Messages[i].timestamp;\n  }\n\n  function getCuratorAddress() public constant returns (address) {\n    return curator;\n  }\n\n  function getForwardingAddress() public constant returns (address) {\n    return forwardingAddress;\n  }\n\n  function getLimitPostLength() public constant returns (uint16) {\n    return limitPostLength;\n  }\n\n  function getIsSiteOpen() public constant returns (bool) {\n    return isSiteOpen;\n  }\n\n  function getPermissionNeededToMessage() public constant returns (bool) {\n    return permissionNeededToMessage;\n  }\n\n  function getPermissionNeededToProfile() public constant returns (bool) {\n    return permissionNeededToProfile;\n  }\n      \n  function getProfileContent(address target)\n    public constant returns (string) {\n    require(checkValidProfile(target));\n    return Profiles[target].contents;\n  }\n\n  function getIsPrivileged (address target)\n    public constant returns (bool) {\n    return Profiles[target].isPrivileged;\n  }\n\n  function getVersionNumber() public constant returns (uint) {\n    return versionNumber;\n  }\n\n  function checkValidProfile(address target) public constant returns (bool) {\n    return Profiles[target].timestamp > 0;\n  }\n\n\n\n  // ****************** Utility funcs  ******************\n\n  function closeLandmarkSite() public checkCurator() {\n    isSiteOpen=false;\n  }\n  \n  function setForwardingAddress(address target) public checkCurator() {\n    require(isSiteOpen==false);\n    forwardingAddress = target;\n  }\n  \n  // ****************** Payment funcs  ******************\n  \n  function getContractValue() public \n    constant returns (uint) {\n    return this.balance;\n  }\n\n  function getCostPrivilege() public constant returns (uint) {\n    return costPrivilege;\n  }\n\n  function purchasePrivilege() public payable checkIsOpen() {\n\n    // Require that the min cost has been paid\n    require(msg.value>=costPrivilege);\n\n    // Can't purchase if there is no cost\n    require(costPrivilege>0);\n\n    // Can't purchase twice!\n    require(Profiles[msg.sender].isPrivileged == false);\n\n    // Set the flag to true\n    Profiles[msg.sender].isPrivileged = true;\n\n    // Refund overpayment\n    if(msg.value > costPrivilege)\n      msg.sender.transfer(msg.value - costPrivilege);\n\n  }\n\n  function setCostPrivilege(uint newcost) public checkCurator() {\n    costPrivilege = newcost;\n  }\n  \n  function withdrawValue() public checkCurator() returns (bool) {\n    if(this.balance > 0) {\n      // Only transfer if the balance is > 0\n      curator.transfer(this.balance);\n    }\n    return true;\n  }\n\n  // ****************** Helper funcs   ******************\n  \n  function getPostLength(string text)\n    public pure returns (uint length) {\n    // This is complicated since unicode takes up a different amount of space\n    uint i=0;\n    bytes memory string_rep = bytes(text);\n\t\n    while (i<string_rep.length) {\n      if (string_rep[i]>>7==0)\n\ti+=1;\n      else if (string_rep[i]>>5==0x6)\n\ti+=2;\n      else if (string_rep[i]>>4==0xE)\n\ti+=3;\n      else if (string_rep[i]>>3==0x1E)\n\ti+=4;\n      else\n\ti+=1; //For safety\n      length++;\n    }\n  }\n  \n}\n",
  "sourcePath": "/home/travis/git-repo/Landmark/contracts/Landmark.sol",
  "schemaVersion": "1.0.0",
  "updatedAt": "2017-10-15T03:07:54.938Z"
}